:020000020000FC
:100000000FEF0DBF08E00EBF00E80093610007E0AE
:100010000093610004E005BD0FEC06BD00E007B9E8
:100020000FEF08B90FEF04B90AB9B2E0A0E2F0E0AF
:10003000ECE32591203011F02D93FBCF7E306D79CC
:10004000335B5F707F73771F4E3D4F47000020E0AA
:1000500080E066B1761759F00E94510066B17617BC
:1000600031F0762F70FD839571FD8A958F70821720
:10007000A9F005B300FF0AC0A89A0FEC06BD1395BE
:100080001A3021F410E023952F7025B9D2E0C0E298
:10009000422FC80FD01D58815BB9DBCF2FEF2C9AB0
:1000A000E8CF20E023952030E9F720E023952030A9
:0C00B000E9F720E023952030E9F70895DF
:00000001FF
