S01400004C61626F7261746F72696F342E737265635E
S11300000C9434000C9451000C9451000C94F200A4
S11300100C9451000C9451000C9451000C94510018
S11300200C9451000C9451000C9451000C94510008
S11300300C9451000C9451000C9451000C945100F8
S11300400C94DB000C9451000C9451000C9451005E
S11300500C9451000C9419010C9451000C9451000F
S11300600C9451000C94510011241FBECFEFD8E022
S1130070DEBFCDBF11E0A0E0B1E0E4E7F2E002C0F2
S113008005900D92A031B107D9F721E0A0E1B1E0CC
S113009001C01D92A531B207E1F70E9476000C94CD
S11300A038010C940000F8948FEF8AB91BB887B913
S11300B018B814B885B986E480937C00EAE7F0E0C8
S11300C08FE8808380818064808381E080936800EE
S11300D093E090936B0014BC92E095BD94E696BDBA
S11300E080936E0010921401789408950E94530036
S11300F080911201909113019C010024220F331F5F
S1130100001C220F331F001C232F302D969587953A
S1130110969587958F7090E1299F800D1124909179
S11301201101981720F488B1886088B903C088B198
S1130130877F88B980911001813071F018F0823086
S113014029F1D6CF88B1816088B988B18B7F88B90D
S1130150809111018BB9CCCF88B18E7F88B988B1D9
S1130160826088B9E0911201F09113010024EE0F2E
S1130170FF1F001CEE0FFF1F001CEF2FF02DEF7070
S1130180FF27E050FF4F80818BB9B2CF88B18460E4
S113019088B988B18D7F88B9E0911201F09113017B
S11301A0F695E795F695E795EF70FF27E050FF4F3A
S11301B080818BB99DCF1F920F920FB60F9211249D
S11301C08F9384E686BD809110018F5F8093100128
S11301D0833011F4109210018F910F900FBE0F9085
S11301E01F9018951F920F920FB60F9211242F9300
S11301F08F939F9383B19091140190FF07C080FD6A
S113020005C0209111012F5F2093110191FF07C0B8
S113021081FD05C09091110191509093110180933B
S113022014019F918F912F910F900FBE0F901F90EB
S113023018951F920F920FB60F9211248F939F93CC
S1130240EF93FF938091780090917900909313013C
S113025080931201EAE7F0E0808180648083FF915B
S1130260EF919F918F910F900FBE0F901F90189553
S1070270F894FFCF2C
S11302747E306D79335B5F707F73771F4E3D4F47DC
S9030000FC
