:100000000C9434000C9446000C9446000C9446006A
:100010000C9446000C9446000C9446000C94460048
:100020000C9446000C9446000C9446000C94460038
:100030000C9446000C9446000C9446000C94460028
:100040000C9446000C9446000C94D0010C9446008D
:100050000C9446000C9446000C9446000C94460008
:100060000C9446000C94460011241FBECFEFD8E03C
:10007000DEBFCDBF21E0A0E0B1E001C01D92A23102
:10008000B207E1F70E9405020C94BF030C94000034
:10009000F8948FEE8AB980E88BB914B88FEF85B9E0
:1000A00080E480937C0087E880937A0084B1866046
:1000B00084B982EA809380008AE18093810080E4A1
:1000C0009CE990938700809386008AB180668AB904
:1000D00093EA94BD85E085BD84B1886084B98AB116
:1000E00088608AB99093B00087E08093B1008AB1AC
:1000F00082608AB98AB18E7F8AB91092C00088E97D
:100100008093C10086E08093C20087E690E09093E0
:10011000C5008093C40078940895ECE7F0E09081E6
:10012000907F892B8083EAE7F0E080818064808380
:1001300080917A0086FDFCCF8091780090917900C3
:100140000895823009F451C028F4882351F0813099
:1001500071F10895833009F474C0843009F4A0C0AB
:1001600008959B01225A3109213084E0380710F0AC
:1001700020E030E0A0EABFE00E94B0032CEB32E0C8
:1001800040E050E00E948E0328513C4F283E83E01F
:10019000380710F428EE33E0293883E1380710F0EF
:1001A00028E833E1309389002093880008959B016B
:1001B000A0EABFE00E94B00326E632E040E050E053
:1001C0000E948E0328513C4F283E83E0380710F4EC
:1001D00028EE33E0293883E1380710F028E833E1CE
:1001E00030938B0020938A000895613084E0780773
:1001F00010F060E070E09B01A0EABFE00E94B00355
:100200002FEF33E040E050E00E948E0328513C4F36
:10021000283E83E0380710F428EE33E0293883E1E4
:10022000380710F028E833E1285E33400024220F1D
:10023000331F001C220F331F001C232F302D28BD1D
:1002400008959B01225A3109213084E0380710F0CB
:1002500020E030E0A0EABFE00E94B00326E632E0F2
:1002600040E050E00E948E0328513C4F283E83E03E
:10027000380710F428EE33E0293883E1380710F00E
:1002800028E833E1285E33400024220F331F001C8E
:10029000220F331F001C232F302D2093B30008950D
:1002A0009B01A0EABFE00E94B00326E632E040E0F6
:1002B00050E00E948E0328513C4F283E83E03807CF
:1002C00010F428EE33E0293883E1380710F028E8ED
:1002D00033E1285E33400024220F331F001C220F1D
:1002E000331F001C232F302D2093B4000895F89461
:1002F000F999FECF92BD81BD8FB381608FBB80B570
:100300000895F894F999FECF92BD81BD60BD8FB379
:1003100086608FBB78940895DF92EF92FF920F93DF
:100320001F93CF93DF93D82EE62EF42E122F85E065
:1003300090E00E947701682F80E090E00E948101A8
:10034000C0E0D0E009C0CE0105960E947701682F79
:10035000CE010E9481012196C431D105A4F36D2DF7
:1003600084E190E00E9481016E2D85E190E00E9481
:1003700081016F2D86E190E00E948101612F87E16C
:1003800090E00E948101602F88E190E00E9481014D
:10039000DF91CF911F910F91FF90EF90DF90089523
:1003A0001F920F920FB60F9211248F939F938091FB
:1003B000C6008534A9F028F4833441F0843459F020
:1003C0001DC0863491F08734A9F018C01092040142
:1003D0001092050113C010920401109205010EC085
:1003E000109204011092050109C0109204011092AC
:1003F000050104C010920401109205019F918F9194
:100400000F900FBE0F901F9018950E94480083B167
:100410009091100190FF15C080FD13C02091000144
:1004200030910101265F3F4F30930101209300017D
:10043000293C310534F028EC30E030930101209361
:1004400000018093110189B190910F01992394F4D7
:10045000882384F020910001309101012A50310954
:100460003093010120930001332324F41092010101
:100470001092000180930F0180910301882321F0E5
:10048000813009F453C0C3CF80E090E00E948D001A
:10049000BC0180E090E00E94A10081E090E00E9419
:1004A0008D00BC0181E090E00E94A10082E090E01C
:1004B0000E948D00BC0182E090E00E94A10083E0D8
:1004C00090E00E948D00BC0183E090E00E94A100BA
:1004D000609100017091010184E090E00E94A10010
:1004E000C3B18091110184FF1EC0C4FD1CC00091E6
:1004F00000011091010183E090E00E948D005C01F9
:1005000082E090E00E948D006C0181E090E00E940A
:100510008D007C0180E090E00E948D009501A60195
:10052000B7010E948C01C093100171CF809102012C
:10053000823009F469C028F4882351F08130B1F188
:1005400066CF833009F48EC0843009F4B9C05FCF20
:1005500080E090E00E947701BC0180E090E00E9482
:10056000A10081E090E00E947701BC0181E090E071
:100570000E94A10082E090E00E947701BC0182E02D
:1005800090E00E94A10083E090E00E947701BC010E
:1005900083E090E00E94A10084E090E00E94770157
:1005A000BC0184E090E00E94A10031CF85E090E0A2
:1005B0000E947701BC0180E090E00E94A10086E0EB
:1005C00090E00E947701BC0181E090E00E94A100D0
:1005D00087E090E00E947701BC0182E090E00E94F9
:1005E000A10088E090E00E947701BC0183E090E0E8
:1005F0000E94A10089E090E00E947701BC0184E0A4
:1006000090E00E94A10003CF8AE090E00E94770171
:10061000BC0180E090E00E94A1008BE090E00E948D
:100620007701BC0181E090E00E94A1008CE090E0A5
:100630000E947701BC0182E090E00E94A1008DE061
:1006400090E00E947701BC0183E090E00E94A1004D
:100650008EE090E00E947701BC0184E090E00E946F
:10066000A100D5CE8FE090E00E947701BC0180E030
:1006700090E00E94A10080E190E00E947701BC011F
:1006800081E090E00E94A10081E190E00E9477016A
:10069000BC0182E090E00E94A10082E190E00E9413
:1006A0007701BC0183E090E00E94A10083E190E02B
:1006B0000E947701BC0184E090E00E94A100A7CED7
:1006C00084E190E00E947701BC0180E090E00E940C
:1006D000A10085E190E00E947701BC0181E090E0FB
:1006E0000E94A10086E190E00E947701BC0182E0B7
:1006F00090E00E94A10087E190E00E947701BC0198
:1007000083E090E00E94A10088E190E00E947701E0
:10071000BC0184E090E00E94A10079CEA1E21A2EF3
:10072000AA1BBB1BFD010DC0AA1FBB1FEE1FFF1F95
:10073000A217B307E407F50720F0A21BB30BE40BE5
:10074000F50B661F771F881F991F1A9469F760952C
:100750007095809590959B01AC01BD01CF010895E6
:10076000A29FB001B39FC001A39F700D811D1124F2
:10077000911DB29F700D811D1124911D0895F89453
:02078000FFCFA9
:00000001FF
