S01D00004C61626F7261746F72696F35202D203233313330362E73726563B8
S11300000C9434000C943E000C943E000C943E007E
S11300100C943E000C943E000C943E000C943E0064
S11300200C943E000C943E000C943E000C943E0054
S11300300C943E000C943E000C943E000C943E0044
S11300400C943E000C943E000C943E000C943E0034
S11300500C943E000C943E000C943E000C943E0024
S11300600C943E000C943E0011241FBECFEFD8E048
S1130070DEBFCDBF0E94AB000C941F010C940000A6
S113008084B1866084B98AB180688AB982EA80932F
S113009080008AE18093810080E49CE9909387004A
S11300A08093860088EE93E0909389008093880083
S11300B090938B0080938A000895883E23E09207F2
S11300C010F488EE93E0893823E1920710F088E871
S11300D093E190938900809388000895883E23E0FB
S11300E0920710F488EE93E0893823E1920710F028
S11300F088E893E190938B0080938A000895ECE75D
S1130100F0E09081907F8F70892B8083EAE7F0E0A4
S113011080818064808380917A0086FDFCCF809109
S11301207800909179000895F8948FEF8AB91BB8FC
S113013084B1886084B982E480937C0087E88093EA
S11301407A0083E88093B00082E08093B10010923B
S1130150B300789408950E9494000E94400082E0C5
S11301600E947F00EC0181E00E947F008C0180E00E
S11301700E947F005C019E01A0EABFE00E94100182
S11301800F2ECC24CA94F3E0DF2EE12CF12CF02DB9
S1130190A70196010E94EE00E901C851DC4F9801C5
S11301A0A0EABFE00E941001A70196010E94EE00A0
S11301B0890108511C4F9501AFEFB0E00E94100176
S11301C0A70196010E94EE00F22EC8010E946E0063
S11301D0CE010E945D00F092B300C1CFA1E21A2EBD
S11301E0AA1BBB1BFD010DC0AA1FBB1FEE1FFF1FD7
S11301F0A217B307E407F50720F0A21BB30BE40B27
S1130200F50B661F771F881F991F1A9469F760956D
S11302107095809590959B01AC01BD01CF01089527
S1130220A29FB001B39FC001A39F700D811D112433
S1130230911DB29F700D811D1124911D0895F89494
S1050240FFCFEA
S9030000FC
