:020000020000FC
:0200000020C01E
:02000C007AC0B8
:100040004FC02FEF2DBF28E02EBFF89420E024B939
:100050002FEF25B92FEF27B92AB900E800936100E7
:1000600003E00093610003E005BD04E606BD01E086
:1000700000936E0023E020936B0021E02093680042
:1000800020E0B2E0A0E2F0E0E4E92591203011F0B8
:100090002D93FBCF7E306D79335B5F707F73771F5D
:1000A0004E3D4F47000020E030E070E07894D2E011
:1000B000C0E2C20F58815BB9E2E0E32BE8B90E94CD
:1000C0008F00D2E0C0E2C70F58815BB9E1E0E32BBB
:1000D000E8B90E948F00E0E0EBB9E32BE8B9E7CF85
:1000E00004E606BD1395183C21F410E023952A3050
:1000F0000CF4189520E0739576300CF4FACF70E08C
:10010000F8CF3695369583B180FF02C033953F70A6
:1001100081FF02C03A953F70330F330F189590E07E
:1001200093959030E9F790E093959030E9F790E05F
:0801300093959030E9F7089562
:00000001FF
